{"abi":[{"type":"constructor","inputs":[{"name":"_registry","type":"address","internalType":"address"}],"stateMutability":"nonpayable"},{"type":"function","name":"agentToClaim","inputs":[{"name":"","type":"uint256","internalType":"uint256"}],"outputs":[{"name":"","type":"uint256","internalType":"uint256"}],"stateMutability":"view"},{"type":"function","name":"claims","inputs":[{"name":"","type":"uint256","internalType":"uint256"}],"outputs":[{"name":"agentId","type":"uint256","internalType":"uint256"},{"name":"owner","type":"address","internalType":"address"},{"name":"level","type":"uint8","internalType":"enum ClaimMinter.VerificationLevel"},{"name":"proofHash","type":"bytes32","internalType":"bytes32"},{"name":"timestamp","type":"uint64","internalType":"uint64"},{"name":"active","type":"bool","internalType":"bool"}],"stateMutability":"view"},{"type":"function","name":"getClaimStatus","inputs":[{"name":"agentId","type":"uint256","internalType":"uint256"}],"outputs":[{"name":"claimed","type":"bool","internalType":"bool"},{"name":"active","type":"bool","internalType":"bool"},{"name":"level","type":"uint8","internalType":"enum ClaimMinter.VerificationLevel"},{"name":"owner","type":"address","internalType":"address"},{"name":"timestamp","type":"uint64","internalType":"uint64"}],"stateMutability":"view"},{"type":"function","name":"getOwnerClaims","inputs":[{"name":"owner","type":"address","internalType":"address"}],"outputs":[{"name":"","type":"uint256[]","internalType":"uint256[]"}],"stateMutability":"view"},{"type":"function","name":"mintSelfClaim","inputs":[{"name":"agentURI","type":"string","internalType":"string"},{"name":"agentProvider","type":"string","internalType":"string"},{"name":"verificationToken","type":"bytes32","internalType":"bytes32"},{"name":"selfProofHash","type":"bytes32","internalType":"bytes32"}],"outputs":[{"name":"claimId","type":"uint256","internalType":"uint256"}],"stateMutability":"nonpayable"},{"type":"function","name":"mintWalletClaim","inputs":[{"name":"agentURI","type":"string","internalType":"string"},{"name":"agentProvider","type":"string","internalType":"string"},{"name":"verificationToken","type":"bytes32","internalType":"bytes32"}],"outputs":[{"name":"claimId","type":"uint256","internalType":"uint256"}],"stateMutability":"nonpayable"},{"type":"function","name":"nextClaimId","inputs":[],"outputs":[{"name":"","type":"uint256","internalType":"uint256"}],"stateMutability":"view"},{"type":"function","name":"ownerClaims","inputs":[{"name":"","type":"address","internalType":"address"},{"name":"","type":"uint256","internalType":"uint256"}],"outputs":[{"name":"","type":"uint256","internalType":"uint256"}],"stateMutability":"view"},{"type":"function","name":"reactivate","inputs":[{"name":"claimId","type":"uint256","internalType":"uint256"}],"outputs":[],"stateMutability":"nonpayable"},{"type":"function","name":"registry","inputs":[],"outputs":[{"name":"","type":"address","internalType":"contract IIdentityRegistry"}],"stateMutability":"view"},{"type":"function","name":"suspend","inputs":[{"name":"claimId","type":"uint256","internalType":"uint256"}],"outputs":[],"stateMutability":"nonpayable"},{"type":"function","name":"usedTokens","inputs":[{"name":"","type":"bytes32","internalType":"bytes32"}],"outputs":[{"name":"","type":"bool","internalType":"bool"}],"stateMutability":"view"},{"type":"function","name":"waymintAdmin","inputs":[],"outputs":[{"name":"","type":"address","internalType":"address"}],"stateMutability":"view"},{"type":"event","name":"ClaimMinted","inputs":[{"name":"claimId","type":"uint256","indexed":true,"internalType":"uint256"},{"name":"agentId","type":"uint256","indexed":true,"internalType":"uint256"},{"name":"owner","type":"address","indexed":true,"internalType":"address"},{"name":"level","type":"uint8","indexed":false,"internalType":"enum ClaimMinter.VerificationLevel"},{"name":"proofHash","type":"bytes32","indexed":false,"internalType":"bytes32"}],"anonymous":false},{"type":"event","name":"ClaimReactivated","inputs":[{"name":"claimId","type":"uint256","indexed":true,"internalType":"uint256"}],"anonymous":false},{"type":"event","name":"ClaimSuspended","inputs":[{"name":"claimId","type":"uint256","indexed":true,"internalType":"uint256"}],"anonymous":false},{"type":"error","name":"AlreadyClaimed","inputs":[{"name":"agentId","type":"uint256","internalType":"uint256"}]},{"type":"error","name":"ClaimNotActive","inputs":[{"name":"claimId","type":"uint256","internalType":"uint256"}]},{"type":"error","name":"InvalidProof","inputs":[]},{"type":"error","name":"NotClaimOwner","inputs":[{"name":"claimId","type":"uint256","internalType":"uint256"}]},{"type":"error","name":"TokenAlreadyUsed","inputs":[{"name":"tokenHash","type":"bytes32","internalType":"bytes32"}]}],"bytecode":{"object":"0x60c0604052600160045534801561001557600080fd5b50604051611dab380380611dab83398181016040528101906100379190610108565b8073ffffffffffffffffffffffffffffffffffffffff1660808173ffffffffffffffffffffffffffffffffffffffff16815250503373ffffffffffffffffffffffffffffffffffffffff1660a08173ffffffffffffffffffffffffffffffffffffffff168152505050610135565b600080fd5b600073ffffffffffffffffffffffffffffffffffffffff82169050919050565b60006100d5826100aa565b9050919050565b6100e5816100ca565b81146100f057600080fd5b50565b600081519050610102816100dc565b92915050565b60006020828403121561011e5761011d6100a5565b5b600061012c848285016100f3565b91505092915050565b60805160a051611c27610184600039600081816106550152610a0201526000818161078901528181610a2901528181610b2301528181610bb201528181610c7a0152610d270152611c276000f3fe608060405234801561001057600080fd5b50600436106100cf5760003560e01c80637b1039991161008c5780639f02d515116100665780639f02d5151461024e578063a0021cf11461027e578063a888c2cd1461029c578063b1fc1e56146102d1576100cf565b80637b103999146101d05780637bc25adf146101ee5780638d2e33841461021e576100cf565b806309df30ec146100d4578063135a8914146100f057806327f4450f1461012057806330f3de741461015057806336dbd2f9146101805780634b865846146101b4575b600080fd5b6100ee60048036038101906100e99190611056565b6102ef565b005b61010a600480360381019061010591906110e1565b6103e7565b6040516101179190611130565b60405180910390f35b61013a600480360381019061013591906111e6565b610418565b6040516101479190611130565b60405180910390f35b61016a6004803603810190610165919061127b565b6104f3565b60405161017791906112c3565b60405180910390f35b61019a60048036038101906101959190611056565b610513565b6040516101ab959493929190611387565b60405180910390f35b6101ce60048036038101906101c99190611056565b6105e2565b005b6101d8610787565b6040516101e59190611439565b60405180910390f35b61020860048036038101906102039190611454565b6107ab565b6040516102159190611130565b60405180910390f35b610238600480360381019061023391906114fb565b6108c1565b60405161024591906115e6565b60405180910390f35b61026860048036038101906102639190611056565b610958565b6040516102759190611130565b60405180910390f35b610286610970565b6040516102939190611130565b60405180910390f35b6102b660048036038101906102b19190611056565b610976565b6040516102c896959493929190611617565b60405180910390f35b6102d9610a00565b6040516102e69190611678565b60405180910390f35b600080600083815260200190815260200160002090508060010160009054906101000a900473ffffffffffffffffffffffffffffffffffffffff1673ffffffffffffffffffffffffffffffffffffffff163373ffffffffffffffffffffffffffffffffffffffff161461039957816040517f17cde7a80000000000000000000000000000000000000000000000000000000081526004016103909190611130565b60405180910390fd5b60018160030160086101000a81548160ff021916908315150217905550817feeee1c57be4f063f4008e35c5abf729b761a9947f6bd3b4460827e1bf931571360405160405180910390a25050565b6002602052816000526040600020818154811061040357600080fd5b90600052602060002001600091509150505481565b600080823360405160200161042e9291906116fc565b6040516020818303038152906040528051906020012090506003600082815260200190815260200160002060009054906101000a900460ff16156104a957806040517fc51d21010000000000000000000000000000000000000000000000000000000081526004016104a09190611728565b60405180910390fd5b60016003600083815260200190815260200160002060006101000a81548160ff0219169083151502179055506104e78787878760008060001b610a24565b91505095945050505050565b60036020528060005260406000206000915054906101000a900460ff1681565b600080600080600080600160008881526020019081526020016000205490506000810361055257600080600080600095509550955095509550506105d9565b6000806000838152602001908152602001600020905060018160030160089054906101000a900460ff168260010160149054906101000a900460ff168360010160009054906101000a900473ffffffffffffffffffffffffffffffffffffffff168460030160009054906101000a900467ffffffffffffffff169650965096509650965050505b91939590929450565b600080600083815260200190815260200160002090508060010160009054906101000a900473ffffffffffffffffffffffffffffffffffffffff1673ffffffffffffffffffffffffffffffffffffffff163373ffffffffffffffffffffffffffffffffffffffff16141580156106a457507f000000000000000000000000000000000000000000000000000000000000000073ffffffffffffffffffffffffffffffffffffffff163373ffffffffffffffffffffffffffffffffffffffff1614155b156106e657816040517f17cde7a80000000000000000000000000000000000000000000000000000000081526004016106dd9190611130565b60405180910390fd5b8060030160089054906101000a900460ff1661073957816040517f056689e20000000000000000000000000000000000000000000000000000000081526004016107309190611130565b60405180910390fd5b60008160030160086101000a81548160ff021916908315150217905550817f70b9b35514e7b08adcfd12c70e1f3133206928053cf7237c0849411f82745ee660405160405180910390a25050565b7f000000000000000000000000000000000000000000000000000000000000000081565b60008060001b82036107e9576040517f09bde33900000000000000000000000000000000000000000000000000000000815260040160405180910390fd5b600083336040516020016107fe9291906116fc565b6040516020818303038152906040528051906020012090506003600082815260200190815260200160002060009054906101000a900460ff161561087957806040517fc51d21010000000000000000000000000000000000000000000000000000000081526004016108709190611728565b60405180910390fd5b60016003600083815260200190815260200160002060006101000a81548160ff0219169083151502179055506108b488888888600288610a24565b9150509695505050505050565b6060600260008373ffffffffffffffffffffffffffffffffffffffff1673ffffffffffffffffffffffffffffffffffffffff16815260200190815260200160002080548060200260200160405190810160405280929190818152602001828054801561094c57602002820191906000526020600020905b815481526020019060010190808311610938575b50505050509050919050565b60016020528060005260406000206000915090505481565b60045481565b60006020528060005260406000206000915090508060000154908060010160009054906101000a900473ffffffffffffffffffffffffffffffffffffffff16908060010160149054906101000a900460ff16908060020154908060030160009054906101000a900467ffffffffffffffff16908060030160089054906101000a900460ff16905086565b7f000000000000000000000000000000000000000000000000000000000000000081565b6000807f000000000000000000000000000000000000000000000000000000000000000073ffffffffffffffffffffffffffffffffffffffff166332434a2e338a8a6040518463ffffffff1660e01b8152600401610a84939291906117a1565b6020604051808303816000875af1158015610aa3573d6000803e3d6000fd5b505050506040513d601f19601f82011682018060405250810190610ac791906117e8565b90506000600160008381526020019081526020016000205414610b2157806040517fb3167bfa000000000000000000000000000000000000000000000000000000008152600401610b189190611130565b60405180910390fd5b7f000000000000000000000000000000000000000000000000000000000000000073ffffffffffffffffffffffffffffffffffffffff1663466648da8288886040518463ffffffff1660e01b8152600401610b7e9392919061189f565b600060405180830381600087803b158015610b9857600080fd5b505af1158015610bac573d6000803e3d6000fd5b505050507f000000000000000000000000000000000000000000000000000000000000000073ffffffffffffffffffffffffffffffffffffffff1663466648da82866002811115610c0057610bff6112de565b5b604051602001610c109190611900565b6040516020818303038152906040526040518363ffffffff1660e01b8152600401610c3c9291906119d5565b600060405180830381600087803b158015610c5657600080fd5b505af1158015610c6a573d6000803e3d6000fd5b505050506000801b8314610d25577f000000000000000000000000000000000000000000000000000000000000000073ffffffffffffffffffffffffffffffffffffffff1663466648da8285604051602001610cc69190611728565b6040516020818303038152906040526040518363ffffffff1660e01b8152600401610cf2929190611a64565b600060405180830381600087803b158015610d0c57600080fd5b505af1158015610d20573d6000803e3d6000fd5b505050505b7f000000000000000000000000000000000000000000000000000000000000000073ffffffffffffffffffffffffffffffffffffffff1663466648da8242604051602001610d739190611aa7565b6040516020818303038152906040526040518363ffffffff1660e01b8152600401610d9f929190611b0e565b600060405180830381600087803b158015610db957600080fd5b505af1158015610dcd573d6000803e3d6000fd5b5050505060046000815480929190610de490611b80565b9190505591506040518060c001604052808281526020013373ffffffffffffffffffffffffffffffffffffffff168152602001856002811115610e2a57610e296112de565b5b81526020018481526020014267ffffffffffffffff168152602001600115158152506000808481526020019081526020016000206000820151816000015560208201518160010160006101000a81548173ffffffffffffffffffffffffffffffffffffffff021916908373ffffffffffffffffffffffffffffffffffffffff16021790555060408201518160010160146101000a81548160ff02191690836002811115610eda57610ed96112de565b5b02179055506060820151816002015560808201518160030160006101000a81548167ffffffffffffffff021916908367ffffffffffffffff16021790555060a08201518160030160086101000a81548160ff021916908315150217905550905050816001600083815260200190815260200160002081905550600260003373ffffffffffffffffffffffffffffffffffffffff1673ffffffffffffffffffffffffffffffffffffffff1681526020019081526020016000208290806001815401808255809150506001900390600052602060002001600090919091909150553373ffffffffffffffffffffffffffffffffffffffff1681837f1440aabae2265b44b87083648bcc1569e42dc670c855da6601436b4d69b7fd1e8787604051611003929190611bc8565b60405180910390a4509695505050505050565b600080fd5b600080fd5b6000819050919050565b61103381611020565b811461103e57600080fd5b50565b6000813590506110508161102a565b92915050565b60006020828403121561106c5761106b611016565b5b600061107a84828501611041565b91505092915050565b600073ffffffffffffffffffffffffffffffffffffffff82169050919050565b60006110ae82611083565b9050919050565b6110be816110a3565b81146110c957600080fd5b50565b6000813590506110db816110b5565b92915050565b600080604083850312156110f8576110f7611016565b5b6000611106858286016110cc565b925050602061111785828601611041565b9150509250929050565b61112a81611020565b82525050565b60006020820190506111456000830184611121565b92915050565b600080fd5b600080fd5b600080fd5b60008083601f8401126111705761116f61114b565b5b8235905067ffffffffffffffff81111561118d5761118c611150565b5b6020830191508360018202830111156111a9576111a8611155565b5b9250929050565b6000819050919050565b6111c3816111b0565b81146111ce57600080fd5b50565b6000813590506111e0816111ba565b92915050565b60008060008060006060868803121561120257611201611016565b5b600086013567ffffffffffffffff8111156112205761121f61101b565b5b61122c8882890161115a565b9550955050602086013567ffffffffffffffff81111561124f5761124e61101b565b5b61125b8882890161115a565b9350935050604061126e888289016111d1565b9150509295509295909350565b60006020828403121561129157611290611016565b5b600061129f848285016111d1565b91505092915050565b60008115159050919050565b6112bd816112a8565b82525050565b60006020820190506112d860008301846112b4565b92915050565b7f4e487b7100000000000000000000000000000000000000000000000000000000600052602160045260246000fd5b6003811061131e5761131d6112de565b5b50565b600081905061132f8261130d565b919050565b600061133f82611321565b9050919050565b61134f81611334565b82525050565b61135e816110a3565b82525050565b600067ffffffffffffffff82169050919050565b61138181611364565b82525050565b600060a08201905061139c60008301886112b4565b6113a960208301876112b4565b6113b66040830186611346565b6113c36060830185611355565b6113d06080830184611378565b9695505050505050565b6000819050919050565b60006113ff6113fa6113f584611083565b6113da565b611083565b9050919050565b6000611411826113e4565b9050919050565b600061142382611406565b9050919050565b61143381611418565b82525050565b600060208201905061144e600083018461142a565b92915050565b6000806000806000806080878903121561147157611470611016565b5b600087013567ffffffffffffffff81111561148f5761148e61101b565b5b61149b89828a0161115a565b9650965050602087013567ffffffffffffffff8111156114be576114bd61101b565b5b6114ca89828a0161115a565b945094505060406114dd89828a016111d1565b92505060606114ee89828a016111d1565b9150509295509295509295565b60006020828403121561151157611510611016565b5b600061151f848285016110cc565b91505092915050565b600081519050919050565b600082825260208201905092915050565b6000819050602082019050919050565b61155d81611020565b82525050565b600061156f8383611554565b60208301905092915050565b6000602082019050919050565b600061159382611528565b61159d8185611533565b93506115a883611544565b8060005b838110156115d95781516115c08882611563565b97506115cb8361157b565b9250506001810190506115ac565b5085935050505092915050565b600060208201905081810360008301526116008184611588565b905092915050565b611611816111b0565b82525050565b600060c08201905061162c6000830189611121565b6116396020830188611355565b6116466040830187611346565b6116536060830186611608565b6116606080830185611378565b61166d60a08301846112b4565b979650505050505050565b600060208201905061168d6000830184611355565b92915050565b6000819050919050565b6116ae6116a9826111b0565b611693565b82525050565b60008160601b9050919050565b60006116cc826116b4565b9050919050565b60006116de826116c1565b9050919050565b6116f66116f1826110a3565b6116d3565b82525050565b6000611708828561169d565b60208201915061171882846116e5565b6014820191508190509392505050565b600060208201905061173d6000830184611608565b92915050565b600082825260208201905092915050565b82818337600083830152505050565b6000601f19601f8301169050919050565b60006117808385611743565b935061178d838584611754565b61179683611763565b840190509392505050565b60006040820190506117b66000830186611355565b81810360208301526117c9818486611774565b9050949350505050565b6000815190506117e28161102a565b92915050565b6000602082840312156117fe576117fd611016565b5b600061180c848285016117d3565b91505092915050565b7f7761796d696e743a70726f766964657200000000000000000000000000000000600082015250565b600061184b601083611743565b915061185682611815565b602082019050919050565b600082825260208201905092915050565b600061187e8385611861565b935061188b838584611754565b61189483611763565b840190509392505050565b60006060820190506118b46000830186611121565b81810360208301526118c58161183e565b905081810360408301526118da818486611872565b9050949350505050565b600060ff82169050919050565b6118fa816118e4565b82525050565b600060208201905061191560008301846118f1565b92915050565b7f7761796d696e743a766572696669636174696f6e4c6576656c00000000000000600082015250565b6000611951601983611743565b915061195c8261191b565b602082019050919050565b600081519050919050565b60005b83811015611990578082015181840152602081019050611975565b60008484015250505050565b60006119a782611967565b6119b18185611861565b93506119c1818560208601611972565b6119ca81611763565b840191505092915050565b60006060820190506119ea6000830185611121565b81810360208301526119fb81611944565b90508181036040830152611a0f818461199c565b90509392505050565b7f7761796d696e743a73656c6650726f6f66486173680000000000000000000000600082015250565b6000611a4e601583611743565b9150611a5982611a18565b602082019050919050565b6000606082019050611a796000830185611121565b8181036020830152611a8a81611a41565b90508181036040830152611a9e818461199c565b90509392505050565b6000602082019050611abc6000830184611378565b92915050565b7f7761796d696e743a636c61696d65644174000000000000000000000000000000600082015250565b6000611af8601183611743565b9150611b0382611ac2565b602082019050919050565b6000606082019050611b236000830185611121565b8181036020830152611b3481611aeb565b90508181036040830152611b48818461199c565b90509392505050565b7f4e487b7100000000000000000000000000000000000000000000000000000000600052601160045260246000fd5b6000611b8b82611020565b91507fffffffffffffffffffffffffffffffffffffffffffffffffffffffffffffffff8203611bbd57611bbc611b51565b5b600182019050919050565b6000604082019050611bdd6000830185611346565b611bea6020830184611608565b939250505056fea2646970667358221220ccd2c74bee32fe6dd80da1b5c6ae5991c3eb0613a9611dc638f552386e7ef1a264736f6c63430008210033","linkReferences":{}},"methodIdentifiers":{"agentToClaim(uint256)":"9f02d515","claims(uint256)":"a888c2cd","getClaimStatus(uint256)":"36dbd2f9","getOwnerClaims(address)":"8d2e3384","mintSelfClaim(string,string,bytes32,bytes32)":"7bc25adf","mintWalletClaim(string,string,bytes32)":"27f4450f","nextClaimId()":"a0021cf1","ownerClaims(address,uint256)":"135a8914","reactivate(uint256)":"09df30ec","registry()":"7b103999","suspend(uint256)":"4b865846","usedTokens(bytes32)":"30f3de74","waymintAdmin()":"b1fc1e56"},"id":16}