{"abi":[{"type":"constructor","inputs":[{"name":"_registry","type":"address","internalType":"address"}],"stateMutability":"nonpayable"},{"type":"function","name":"agentToClaim","inputs":[{"name":"","type":"uint256","internalType":"uint256"}],"outputs":[{"name":"","type":"uint256","internalType":"uint256"}],"stateMutability":"view"},{"type":"function","name":"claims","inputs":[{"name":"","type":"uint256","internalType":"uint256"}],"outputs":[{"name":"agentId","type":"uint256","internalType":"uint256"},{"name":"owner","type":"address","internalType":"address"},{"name":"level","type":"uint8","internalType":"enum ClaimMinter.VerificationLevel"},{"name":"proofHash","type":"bytes32","internalType":"bytes32"},{"name":"timestamp","type":"uint64","internalType":"uint64"},{"name":"active","type":"bool","internalType":"bool"}],"stateMutability":"view"},{"type":"function","name":"getClaimStatus","inputs":[{"name":"agentId","type":"uint256","internalType":"uint256"}],"outputs":[{"name":"claimed","type":"bool","internalType":"bool"},{"name":"active","type":"bool","internalType":"bool"},{"name":"level","type":"uint8","internalType":"enum ClaimMinter.VerificationLevel"},{"name":"owner","type":"address","internalType":"address"},{"name":"timestamp","type":"uint64","internalType":"uint64"}],"stateMutability":"view"},{"type":"function","name":"getOwnerClaims","inputs":[{"name":"owner","type":"address","internalType":"address"}],"outputs":[{"name":"","type":"uint256[]","internalType":"uint256[]"}],"stateMutability":"view"},{"type":"function","name":"mintSelfClaim","inputs":[{"name":"agentURI","type":"string","internalType":"string"},{"name":"agentProvider","type":"string","internalType":"string"},{"name":"verificationToken","type":"bytes32","internalType":"bytes32"},{"name":"selfProofHash","type":"bytes32","internalType":"bytes32"}],"outputs":[{"name":"claimId","type":"uint256","internalType":"uint256"}],"stateMutability":"nonpayable"},{"type":"function","name":"mintWalletClaim","inputs":[{"name":"agentURI","type":"string","internalType":"string"},{"name":"agentProvider","type":"string","internalType":"string"},{"name":"verificationToken","type":"bytes32","internalType":"bytes32"}],"outputs":[{"name":"claimId","type":"uint256","internalType":"uint256"}],"stateMutability":"nonpayable"},{"type":"function","name":"nextClaimId","inputs":[],"outputs":[{"name":"","type":"uint256","internalType":"uint256"}],"stateMutability":"view"},{"type":"function","name":"ownerClaims","inputs":[{"name":"","type":"address","internalType":"address"},{"name":"","type":"uint256","internalType":"uint256"}],"outputs":[{"name":"","type":"uint256","internalType":"uint256"}],"stateMutability":"view"},{"type":"function","name":"reactivate","inputs":[{"name":"claimId","type":"uint256","internalType":"uint256"}],"outputs":[],"stateMutability":"nonpayable"},{"type":"function","name":"registry","inputs":[],"outputs":[{"name":"","type":"address","internalType":"contract IIdentityRegistry"}],"stateMutability":"view"},{"type":"function","name":"suspend","inputs":[{"name":"claimId","type":"uint256","internalType":"uint256"}],"outputs":[],"stateMutability":"nonpayable"},{"type":"function","name":"usedTokens","inputs":[{"name":"","type":"bytes32","internalType":"bytes32"}],"outputs":[{"name":"","type":"bool","internalType":"bool"}],"stateMutability":"view"},{"type":"function","name":"waymintAdmin","inputs":[],"outputs":[{"name":"","type":"address","internalType":"address"}],"stateMutability":"view"},{"type":"event","name":"ClaimMinted","inputs":[{"name":"claimId","type":"uint256","indexed":true,"internalType":"uint256"},{"name":"agentId","type":"uint256","indexed":true,"internalType":"uint256"},{"name":"owner","type":"address","indexed":true,"internalType":"address"},{"name":"level","type":"uint8","indexed":false,"internalType":"enum ClaimMinter.VerificationLevel"},{"name":"proofHash","type":"bytes32","indexed":false,"internalType":"bytes32"}],"anonymous":false},{"type":"event","name":"ClaimReactivated","inputs":[{"name":"claimId","type":"uint256","indexed":true,"internalType":"uint256"}],"anonymous":false},{"type":"event","name":"ClaimSuspended","inputs":[{"name":"claimId","type":"uint256","indexed":true,"internalType":"uint256"}],"anonymous":false},{"type":"error","name":"AlreadyClaimed","inputs":[{"name":"agentId","type":"uint256","internalType":"uint256"}]},{"type":"error","name":"ClaimNotActive","inputs":[{"name":"claimId","type":"uint256","internalType":"uint256"}]},{"type":"error","name":"InvalidProof","inputs":[]},{"type":"error","name":"NotClaimOwner","inputs":[{"name":"claimId","type":"uint256","internalType":"uint256"}]},{"type":"error","name":"TokenAlreadyUsed","inputs":[{"name":"tokenHash","type":"bytes32","internalType":"bytes32"}]}],"bytecode":{"object":"0x60c06040526001600455348015610014575f5ffd5b50604051611ca9380380611ca983398181016040528101906100369190610102565b8073ffffffffffffffffffffffffffffffffffffffff1660808173ffffffffffffffffffffffffffffffffffffffff16815250503373ffffffffffffffffffffffffffffffffffffffff1660a08173ffffffffffffffffffffffffffffffffffffffff16815250505061012d565b5f5ffd5b5f73ffffffffffffffffffffffffffffffffffffffff82169050919050565b5f6100d1826100a8565b9050919050565b6100e1816100c7565b81146100eb575f5ffd5b50565b5f815190506100fc816100d8565b92915050565b5f60208284031215610117576101166100a4565b5b5f610124848285016100ee565b91505092915050565b60805160a051611b316101785f395f818161062a01526109bf01525f818161075d015281816109e501528181610ad901528181610b6301528181610c250152610ccd0152611b315ff3fe608060405234801561000f575f5ffd5b50600436106100cd575f3560e01c80637b1039991161008a5780639f02d515116100645780639f02d5151461024b578063a0021cf11461027b578063a888c2cd14610299578063b1fc1e56146102ce576100cd565b80637b103999146101cd5780637bc25adf146101eb5780638d2e33841461021b576100cd565b806309df30ec146100d1578063135a8914146100ed57806327f4450f1461011d57806330f3de741461014d57806336dbd2f91461017d5780634b865846146101b1575b5f5ffd5b6100eb60048036038101906100e69190610fe4565b6102ec565b005b61010760048036038101906101029190611069565b6103e0565b60405161011491906110b6565b60405180910390f35b61013760048036038101906101329190611163565b61040b565b60405161014491906110b6565b60405180910390f35b610167600480360381019061016291906111f4565b6104dd565b6040516101749190611239565b60405180910390f35b61019760048036038101906101929190610fe4565b6104fa565b6040516101a89594939291906112f6565b60405180910390f35b6101cb60048036038101906101c69190610fe4565b6105bb565b005b6101d561075b565b6040516101e291906113a2565b60405180910390f35b610205600480360381019061020091906113bb565b61077f565b60405161021291906110b6565b60405180910390f35b6102356004803603810190610230919061145e565b61088c565b6040516102429190611540565b60405180910390f35b61026560048036038101906102609190610fe4565b61091f565b60405161027291906110b6565b60405180910390f35b610283610934565b60405161029091906110b6565b60405180910390f35b6102b360048036038101906102ae9190610fe4565b61093a565b6040516102c59695949392919061156f565b60405180910390f35b6102d66109bd565b6040516102e391906115ce565b60405180910390f35b5f5f5f8381526020019081526020015f209050806001015f9054906101000a900473ffffffffffffffffffffffffffffffffffffffff1673ffffffffffffffffffffffffffffffffffffffff163373ffffffffffffffffffffffffffffffffffffffff161461039257816040517f17cde7a800000000000000000000000000000000000000000000000000000000815260040161038991906110b6565b60405180910390fd5b60018160030160086101000a81548160ff021916908315150217905550817feeee1c57be4f063f4008e35c5abf729b761a9947f6bd3b4460827e1bf931571360405160405180910390a25050565b6002602052815f5260405f2081815481106103f9575f80fd5b905f5260205f20015f91509150505481565b5f5f823360405160200161042092919061164c565b60405160208183030381529060405280519060200120905060035f8281526020019081526020015f205f9054906101000a900460ff161561049857806040517fc51d210100000000000000000000000000000000000000000000000000000000815260040161048f9190611677565b60405180910390fd5b600160035f8381526020019081526020015f205f6101000a81548160ff0219169083151502179055506104d1878787875f5f5f1b6109e1565b91505095945050505050565b6003602052805f5260405f205f915054906101000a900460ff1681565b5f5f5f5f5f5f60015f8881526020019081526020015f205490505f8103610530575f5f5f5f5f95509550955095509550506105b2565b5f5f5f8381526020019081526020015f20905060018160030160089054906101000a900460ff168260010160149054906101000a900460ff16836001015f9054906101000a900473ffffffffffffffffffffffffffffffffffffffff16846003015f9054906101000a900467ffffffffffffffff169650965096509650965050505b91939590929450565b5f5f5f8381526020019081526020015f209050806001015f9054906101000a900473ffffffffffffffffffffffffffffffffffffffff1673ffffffffffffffffffffffffffffffffffffffff163373ffffffffffffffffffffffffffffffffffffffff161415801561067957507f000000000000000000000000000000000000000000000000000000000000000073ffffffffffffffffffffffffffffffffffffffff163373ffffffffffffffffffffffffffffffffffffffff1614155b156106bb57816040517f17cde7a80000000000000000000000000000000000000000000000000000000081526004016106b291906110b6565b60405180910390fd5b8060030160089054906101000a900460ff1661070e57816040517f056689e200000000000000000000000000000000000000000000000000000000815260040161070591906110b6565b60405180910390fd5b5f8160030160086101000a81548160ff021916908315150217905550817f70b9b35514e7b08adcfd12c70e1f3133206928053cf7237c0849411f82745ee660405160405180910390a25050565b7f000000000000000000000000000000000000000000000000000000000000000081565b5f5f5f1b82036107bb576040517f09bde33900000000000000000000000000000000000000000000000000000000815260040160405180910390fd5b5f83336040516020016107cf92919061164c565b60405160208183030381529060405280519060200120905060035f8281526020019081526020015f205f9054906101000a900460ff161561084757806040517fc51d210100000000000000000000000000000000000000000000000000000000815260040161083e9190611677565b60405180910390fd5b600160035f8381526020019081526020015f205f6101000a81548160ff02191690831515021790555061087f888888886002886109e1565b9150509695505050505050565b606060025f8373ffffffffffffffffffffffffffffffffffffffff1673ffffffffffffffffffffffffffffffffffffffff1681526020019081526020015f2080548060200260200160405190810160405280929190818152602001828054801561091357602002820191905f5260205f20905b8154815260200190600101908083116108ff575b50505050509050919050565b6001602052805f5260405f205f915090505481565b60045481565b5f602052805f5260405f205f91509050805f015490806001015f9054906101000a900473ffffffffffffffffffffffffffffffffffffffff16908060010160149054906101000a900460ff1690806002015490806003015f9054906101000a900467ffffffffffffffff16908060030160089054906101000a900460ff16905086565b7f000000000000000000000000000000000000000000000000000000000000000081565b5f5f7f000000000000000000000000000000000000000000000000000000000000000073ffffffffffffffffffffffffffffffffffffffff166332434a2e338a8a6040518463ffffffff1660e01b8152600401610a40939291906116ea565b6020604051808303815f875af1158015610a5c573d5f5f3e3d5ffd5b505050506040513d601f19601f82011682018060405250810190610a80919061172e565b90505f60015f8381526020019081526020015f205414610ad757806040517fb3167bfa000000000000000000000000000000000000000000000000000000008152600401610ace91906110b6565b60405180910390fd5b7f000000000000000000000000000000000000000000000000000000000000000073ffffffffffffffffffffffffffffffffffffffff1663466648da8288886040518463ffffffff1660e01b8152600401610b34939291906117df565b5f604051808303815f87803b158015610b4b575f5ffd5b505af1158015610b5d573d5f5f3e3d5ffd5b505050507f000000000000000000000000000000000000000000000000000000000000000073ffffffffffffffffffffffffffffffffffffffff1663466648da82866002811115610bb157610bb0611252565b5b604051602001610bc1919061183d565b6040516020818303038152906040526040518363ffffffff1660e01b8152600401610bed9291906118f0565b5f604051808303815f87803b158015610c04575f5ffd5b505af1158015610c16573d5f5f3e3d5ffd5b505050505f5f1b8314610ccb577f000000000000000000000000000000000000000000000000000000000000000073ffffffffffffffffffffffffffffffffffffffff1663466648da8285604051602001610c719190611677565b6040516020818303038152906040526040518363ffffffff1660e01b8152600401610c9d92919061197b565b5f604051808303815f87803b158015610cb4575f5ffd5b505af1158015610cc6573d5f5f3e3d5ffd5b505050505b7f000000000000000000000000000000000000000000000000000000000000000073ffffffffffffffffffffffffffffffffffffffff1663466648da8242604051602001610d1991906119bc565b6040516020818303038152906040526040518363ffffffff1660e01b8152600401610d45929190611a1f565b5f604051808303815f87803b158015610d5c575f5ffd5b505af1158015610d6e573d5f5f3e3d5ffd5b5050505060045f815480929190610d8490611a8d565b9190505591506040518060c001604052808281526020013373ffffffffffffffffffffffffffffffffffffffff168152602001856002811115610dca57610dc9611252565b5b81526020018481526020014267ffffffffffffffff168152602001600115158152505f5f8481526020019081526020015f205f820151815f01556020820151816001015f6101000a81548173ffffffffffffffffffffffffffffffffffffffff021916908373ffffffffffffffffffffffffffffffffffffffff16021790555060408201518160010160146101000a81548160ff02191690836002811115610e7557610e74611252565b5b0217905550606082015181600201556080820151816003015f6101000a81548167ffffffffffffffff021916908367ffffffffffffffff16021790555060a08201518160030160086101000a81548160ff0219169083151502179055509050508160015f8381526020019081526020015f208190555060025f3373ffffffffffffffffffffffffffffffffffffffff1673ffffffffffffffffffffffffffffffffffffffff1681526020019081526020015f2082908060018154018082558091505060019003905f5260205f20015f90919091909150553373ffffffffffffffffffffffffffffffffffffffff1681837f1440aabae2265b44b87083648bcc1569e42dc670c855da6601436b4d69b7fd1e8787604051610f96929190611ad4565b60405180910390a4509695505050505050565b5f5ffd5b5f5ffd5b5f819050919050565b610fc381610fb1565b8114610fcd575f5ffd5b50565b5f81359050610fde81610fba565b92915050565b5f60208284031215610ff957610ff8610fa9565b5b5f61100684828501610fd0565b91505092915050565b5f73ffffffffffffffffffffffffffffffffffffffff82169050919050565b5f6110388261100f565b9050919050565b6110488161102e565b8114611052575f5ffd5b50565b5f813590506110638161103f565b92915050565b5f5f6040838503121561107f5761107e610fa9565b5b5f61108c85828601611055565b925050602061109d85828601610fd0565b9150509250929050565b6110b081610fb1565b82525050565b5f6020820190506110c95f8301846110a7565b92915050565b5f5ffd5b5f5ffd5b5f5ffd5b5f5f83601f8401126110f0576110ef6110cf565b5b8235905067ffffffffffffffff81111561110d5761110c6110d3565b5b602083019150836001820283011115611129576111286110d7565b5b9250929050565b5f819050919050565b61114281611130565b811461114c575f5ffd5b50565b5f8135905061115d81611139565b92915050565b5f5f5f5f5f6060868803121561117c5761117b610fa9565b5b5f86013567ffffffffffffffff81111561119957611198610fad565b5b6111a5888289016110db565b9550955050602086013567ffffffffffffffff8111156111c8576111c7610fad565b5b6111d4888289016110db565b935093505060406111e78882890161114f565b9150509295509295909350565b5f6020828403121561120957611208610fa9565b5b5f6112168482850161114f565b91505092915050565b5f8115159050919050565b6112338161121f565b82525050565b5f60208201905061124c5f83018461122a565b92915050565b7f4e487b71000000000000000000000000000000000000000000000000000000005f52602160045260245ffd5b600381106112905761128f611252565b5b50565b5f8190506112a08261127f565b919050565b5f6112af82611293565b9050919050565b6112bf816112a5565b82525050565b6112ce8161102e565b82525050565b5f67ffffffffffffffff82169050919050565b6112f0816112d4565b82525050565b5f60a0820190506113095f83018861122a565b611316602083018761122a565b61132360408301866112b6565b61133060608301856112c5565b61133d60808301846112e7565b9695505050505050565b5f819050919050565b5f61136a6113656113608461100f565b611347565b61100f565b9050919050565b5f61137b82611350565b9050919050565b5f61138c82611371565b9050919050565b61139c81611382565b82525050565b5f6020820190506113b55f830184611393565b92915050565b5f5f5f5f5f5f608087890312156113d5576113d4610fa9565b5b5f87013567ffffffffffffffff8111156113f2576113f1610fad565b5b6113fe89828a016110db565b9650965050602087013567ffffffffffffffff81111561142157611420610fad565b5b61142d89828a016110db565b9450945050604061144089828a0161114f565b925050606061145189828a0161114f565b9150509295509295509295565b5f6020828403121561147357611472610fa9565b5b5f61148084828501611055565b91505092915050565b5f81519050919050565b5f82825260208201905092915050565b5f819050602082019050919050565b6114bb81610fb1565b82525050565b5f6114cc83836114b2565b60208301905092915050565b5f602082019050919050565b5f6114ee82611489565b6114f88185611493565b9350611503836114a3565b805f5b8381101561153357815161151a88826114c1565b9750611525836114d8565b925050600181019050611506565b5085935050505092915050565b5f6020820190508181035f83015261155881846114e4565b905092915050565b61156981611130565b82525050565b5f60c0820190506115825f8301896110a7565b61158f60208301886112c5565b61159c60408301876112b6565b6115a96060830186611560565b6115b660808301856112e7565b6115c360a083018461122a565b979650505050505050565b5f6020820190506115e15f8301846112c5565b92915050565b5f819050919050565b6116016115fc82611130565b6115e7565b82525050565b5f8160601b9050919050565b5f61161d82611607565b9050919050565b5f61162e82611613565b9050919050565b6116466116418261102e565b611624565b82525050565b5f61165782856115f0565b6020820191506116678284611635565b6014820191508190509392505050565b5f60208201905061168a5f830184611560565b92915050565b5f82825260208201905092915050565b828183375f83830152505050565b5f601f19601f8301169050919050565b5f6116c98385611690565b93506116d68385846116a0565b6116df836116ae565b840190509392505050565b5f6040820190506116fd5f8301866112c5565b81810360208301526117108184866116be565b9050949350505050565b5f8151905061172881610fba565b92915050565b5f6020828403121561174357611742610fa9565b5b5f6117508482850161171a565b91505092915050565b7f7761796d696e743a70726f7669646572000000000000000000000000000000005f82015250565b5f61178d601083611690565b915061179882611759565b602082019050919050565b5f82825260208201905092915050565b5f6117be83856117a3565b93506117cb8385846116a0565b6117d4836116ae565b840190509392505050565b5f6060820190506117f25f8301866110a7565b818103602083015261180381611781565b905081810360408301526118188184866117b3565b9050949350505050565b5f60ff82169050919050565b61183781611822565b82525050565b5f6020820190506118505f83018461182e565b92915050565b7f7761796d696e743a766572696669636174696f6e4c6576656c000000000000005f82015250565b5f61188a601983611690565b915061189582611856565b602082019050919050565b5f81519050919050565b8281835e5f83830152505050565b5f6118c2826118a0565b6118cc81856117a3565b93506118dc8185602086016118aa565b6118e5816116ae565b840191505092915050565b5f6060820190506119035f8301856110a7565b81810360208301526119148161187e565b9050818103604083015261192881846118b8565b90509392505050565b7f7761796d696e743a73656c6650726f6f664861736800000000000000000000005f82015250565b5f611965601583611690565b915061197082611931565b602082019050919050565b5f60608201905061198e5f8301856110a7565b818103602083015261199f81611959565b905081810360408301526119b381846118b8565b90509392505050565b5f6020820190506119cf5f8301846112e7565b92915050565b7f7761796d696e743a636c61696d656441740000000000000000000000000000005f82015250565b5f611a09601183611690565b9150611a14826119d5565b602082019050919050565b5f606082019050611a325f8301856110a7565b8181036020830152611a43816119fd565b90508181036040830152611a5781846118b8565b90509392505050565b7f4e487b71000000000000000000000000000000000000000000000000000000005f52601160045260245ffd5b5f611a9782610fb1565b91507fffffffffffffffffffffffffffffffffffffffffffffffffffffffffffffffff8203611ac957611ac8611a60565b5b600182019050919050565b5f604082019050611ae75f8301856112b6565b611af46020830184611560565b939250505056fea2646970667358221220403314bb19955cb1cc7308482fecd72ac9ded45567b51760ede4c52af48ce62b64736f6c63430008210033","linkReferences":{}},"methodIdentifiers":{"agentToClaim(uint256)":"9f02d515","claims(uint256)":"a888c2cd","getClaimStatus(uint256)":"36dbd2f9","getOwnerClaims(address)":"8d2e3384","mintSelfClaim(string,string,bytes32,bytes32)":"7bc25adf","mintWalletClaim(string,string,bytes32)":"27f4450f","nextClaimId()":"a0021cf1","ownerClaims(address,uint256)":"135a8914","reactivate(uint256)":"09df30ec","registry()":"7b103999","suspend(uint256)":"4b865846","usedTokens(bytes32)":"30f3de74","waymintAdmin()":"b1fc1e56"},"id":0}