{"abi":[{"type":"constructor","inputs":[{"name":"_selfRegistry","type":"address","internalType":"address"}],"stateMutability":"nonpayable"},{"type":"function","name":"admin","inputs":[],"outputs":[{"name":"","type":"address","internalType":"address"}],"stateMutability":"view"},{"type":"function","name":"agentKeyToCert","inputs":[{"name":"","type":"bytes32","internalType":"bytes32"}],"outputs":[{"name":"","type":"uint256","internalType":"uint256"}],"stateMutability":"view"},{"type":"function","name":"certs","inputs":[{"name":"","type":"uint256","internalType":"uint256"}],"outputs":[{"name":"certId","type":"uint256","internalType":"uint256"},{"name":"owner","type":"address","internalType":"address"},{"name":"agentKey","type":"bytes32","internalType":"bytes32"},{"name":"level","type":"uint8","internalType":"enum ClaimMinter.VerificationLevel"},{"name":"selfAgentId","type":"uint256","internalType":"uint256"},{"name":"humanNullifier","type":"uint256","internalType":"uint256"},{"name":"agentURI","type":"string","internalType":"string"},{"name":"agentProvider","type":"string","internalType":"string"},{"name":"issuedAt","type":"uint64","internalType":"uint64"},{"name":"active","type":"bool","internalType":"bool"}],"stateMutability":"view"},{"type":"function","name":"getCert","inputs":[{"name":"certId","type":"uint256","internalType":"uint256"}],"outputs":[{"name":"","type":"tuple","internalType":"struct ClaimMinter.Certificate","components":[{"name":"certId","type":"uint256","internalType":"uint256"},{"name":"owner","type":"address","internalType":"address"},{"name":"agentKey","type":"bytes32","internalType":"bytes32"},{"name":"level","type":"uint8","internalType":"enum ClaimMinter.VerificationLevel"},{"name":"selfAgentId","type":"uint256","internalType":"uint256"},{"name":"humanNullifier","type":"uint256","internalType":"uint256"},{"name":"agentURI","type":"string","internalType":"string"},{"name":"agentProvider","type":"string","internalType":"string"},{"name":"issuedAt","type":"uint64","internalType":"uint64"},{"name":"active","type":"bool","internalType":"bool"}]}],"stateMutability":"view"},{"type":"function","name":"getCertForAgent","inputs":[{"name":"agentKey","type":"bytes32","internalType":"bytes32"}],"outputs":[{"name":"","type":"tuple","internalType":"struct ClaimMinter.Certificate","components":[{"name":"certId","type":"uint256","internalType":"uint256"},{"name":"owner","type":"address","internalType":"address"},{"name":"agentKey","type":"bytes32","internalType":"bytes32"},{"name":"level","type":"uint8","internalType":"enum ClaimMinter.VerificationLevel"},{"name":"selfAgentId","type":"uint256","internalType":"uint256"},{"name":"humanNullifier","type":"uint256","internalType":"uint256"},{"name":"agentURI","type":"string","internalType":"string"},{"name":"agentProvider","type":"string","internalType":"string"},{"name":"issuedAt","type":"uint64","internalType":"uint64"},{"name":"active","type":"bool","internalType":"bool"}]}],"stateMutability":"view"},{"type":"function","name":"getOwnerCerts","inputs":[{"name":"owner","type":"address","internalType":"address"}],"outputs":[{"name":"","type":"uint256[]","internalType":"uint256[]"}],"stateMutability":"view"},{"type":"function","name":"mintSelfLinkedCert","inputs":[{"name":"agentURI","type":"string","internalType":"string"},{"name":"agentProvider","type":"string","internalType":"string"}],"outputs":[{"name":"certId","type":"uint256","internalType":"uint256"}],"stateMutability":"nonpayable"},{"type":"function","name":"mintSelfVerifiedCert","inputs":[{"name":"agentURI","type":"string","internalType":"string"},{"name":"agentProvider","type":"string","internalType":"string"}],"outputs":[{"name":"certId","type":"uint256","internalType":"uint256"}],"stateMutability":"nonpayable"},{"type":"function","name":"mintWalletCert","inputs":[{"name":"agentURI","type":"string","internalType":"string"},{"name":"agentProvider","type":"string","internalType":"string"}],"outputs":[{"name":"certId","type":"uint256","internalType":"uint256"}],"stateMutability":"nonpayable"},{"type":"function","name":"nextCertId","inputs":[],"outputs":[{"name":"","type":"uint256","internalType":"uint256"}],"stateMutability":"view"},{"type":"function","name":"ownerCerts","inputs":[{"name":"","type":"address","internalType":"address"},{"name":"","type":"uint256","internalType":"uint256"}],"outputs":[{"name":"","type":"uint256","internalType":"uint256"}],"stateMutability":"view"},{"type":"function","name":"reactivate","inputs":[{"name":"certId","type":"uint256","internalType":"uint256"}],"outputs":[],"stateMutability":"nonpayable"},{"type":"function","name":"selfRegistry","inputs":[],"outputs":[{"name":"","type":"address","internalType":"contract ISelfAgentRegistry"}],"stateMutability":"view"},{"type":"function","name":"suspend","inputs":[{"name":"certId","type":"uint256","internalType":"uint256"}],"outputs":[],"stateMutability":"nonpayable"},{"type":"function","name":"walletAgentKey","inputs":[{"name":"wallet","type":"address","internalType":"address"}],"outputs":[{"name":"","type":"bytes32","internalType":"bytes32"}],"stateMutability":"pure"},{"type":"event","name":"CertificateMinted","inputs":[{"name":"certId","type":"uint256","indexed":true,"internalType":"uint256"},{"name":"owner","type":"address","indexed":true,"internalType":"address"},{"name":"agentKey","type":"bytes32","indexed":true,"internalType":"bytes32"},{"name":"level","type":"uint8","indexed":false,"internalType":"enum ClaimMinter.VerificationLevel"},{"name":"selfAgentId","type":"uint256","indexed":false,"internalType":"uint256"},{"name":"humanNullifier","type":"uint256","indexed":false,"internalType":"uint256"}],"anonymous":false},{"type":"event","name":"CertificateReactivated","inputs":[{"name":"certId","type":"uint256","indexed":true,"internalType":"uint256"}],"anonymous":false},{"type":"event","name":"CertificateSuspended","inputs":[{"name":"certId","type":"uint256","indexed":true,"internalType":"uint256"}],"anonymous":false},{"type":"error","name":"AlreadyCertified","inputs":[{"name":"agentKey","type":"bytes32","internalType":"bytes32"}]},{"type":"error","name":"CertNotActive","inputs":[{"name":"certId","type":"uint256","internalType":"uint256"}]},{"type":"error","name":"NotCertOwner","inputs":[{"name":"certId","type":"uint256","internalType":"uint256"}]},{"type":"error","name":"NotRegisteredInSelf","inputs":[]},{"type":"error","name":"ProofExpiredOrInvalid","inputs":[]}],"bytecode":{"object":"0x60c0604052600160035534801561001557600080fd5b5060405161250a38038061250a83398181016040528101906100379190610108565b8073ffffffffffffffffffffffffffffffffffffffff1660808173ffffffffffffffffffffffffffffffffffffffff16815250503373ffffffffffffffffffffffffffffffffffffffff1660a08173ffffffffffffffffffffffffffffffffffffffff168152505050610135565b600080fd5b600073ffffffffffffffffffffffffffffffffffffffff82169050919050565b60006100d5826100aa565b9050919050565b6100e5816100ca565b81146100f057600080fd5b50565b600081519050610102816100dc565b92915050565b60006020828403121561011e5761011d6100a5565b5b600061012c848285016100f3565b91505092915050565b60805160a05161237f61018b600039600081816103e8015281816107e3015261130d01526000818161054701528181610619015281816106b701528181610c6401528181610d3c01526112b8015261237f6000f3fe608060405234801561001057600080fd5b50600436106100f55760003560e01c806365f9532011610097578063cb73484c11610066578063cb73484c146102d9578063dda0225714610309578063ecaa0b3814610327578063f851a44014610357576100f5565b806365f95320146102195780638ef5732f146102495780639ba257bc14610279578063b449e716146102a9576100f5565b80632f1abeeb116100d35780632f1abeeb146101645780634b865846146101945780635cbb16bb146101b0578063646750d6146101e0576100f5565b806309df30ec146100fa57806310701113146101165780632a8e6a8e14610146575b600080fd5b610114600480360381019061010f919061174a565b610375565b005b610130600480360381019061012b91906117d5565b6104c7565b60405161013d919061181b565b60405180910390f35b61014e6104d9565b60405161015b9190611845565b60405180910390f35b61017e600480360381019061017991906118c5565b6104df565b60405161018b9190611845565b60405180910390f35b6101ae60048036038101906101a9919061174a565b610770565b005b6101ca60048036038101906101c591906118c5565b610915565b6040516101d79190611845565b60405180910390f35b6101fa60048036038101906101f5919061174a565b610999565b6040516102109a99989796959493929190611a9a565b60405180910390f35b610233600480360381019061022e9190611b70565b610b4b565b6040516102409190611845565b60405180910390f35b610263600480360381019061025e91906117d5565b610b63565b6040516102709190611c5b565b60405180910390f35b610293600480360381019061028e91906118c5565b610bfa565b6040516102a09190611845565b60405180910390f35b6102c360048036038101906102be919061174a565b610df5565b6040516102d09190611df3565b60405180910390f35b6102f360048036038101906102ee9190611b70565b61104c565b6040516103009190611df3565b60405180910390f35b6103116112b6565b60405161031e9190611e74565b60405180910390f35b610341600480360381019061033c9190611e8f565b6112da565b60405161034e9190611845565b60405180910390f35b61035f61130b565b60405161036c9190611ecf565b60405180910390f35b600080600083815260200190815260200160002090508060010160009054906101000a900473ffffffffffffffffffffffffffffffffffffffff1673ffffffffffffffffffffffffffffffffffffffff163373ffffffffffffffffffffffffffffffffffffffff161415801561043757507f000000000000000000000000000000000000000000000000000000000000000073ffffffffffffffffffffffffffffffffffffffff163373ffffffffffffffffffffffffffffffffffffffff1614155b1561047957816040517ff0fdd8560000000000000000000000000000000000000000000000000000000081526004016104709190611845565b60405180910390fd5b60018160080160086101000a81548160ff021916908315150217905550817f0254196651c53cd04698b1f92d580dd4f2af73fbd340eaaa056babb3796c961460405160405180910390a25050565b60006104d28261132f565b9050919050565b60035481565b6000806104eb3361132f565b9050600060016000838152602001908152602001600020541461054557806040517fe5b05b6500000000000000000000000000000000000000000000000000000000815260040161053c919061181b565b60405180910390fd5b7f000000000000000000000000000000000000000000000000000000000000000073ffffffffffffffffffffffffffffffffffffffff166329f0e31e826040518263ffffffff1660e01b815260040161059e919061181b565b602060405180830381865afa1580156105bb573d6000803e3d6000fd5b505050506040513d601f19601f820116820180604052508101906105df9190611f16565b610615576040517fe55be51700000000000000000000000000000000000000000000000000000000815260040160405180910390fd5b60007f000000000000000000000000000000000000000000000000000000000000000073ffffffffffffffffffffffffffffffffffffffff1663bc936c52836040518263ffffffff1660e01b8152600401610670919061181b565b602060405180830381865afa15801561068d573d6000803e3d6000fd5b505050506040513d601f19601f820116820180604052508101906106b19190611f58565b905060007f000000000000000000000000000000000000000000000000000000000000000073ffffffffffffffffffffffffffffffffffffffff16635b0ad7ca836040518263ffffffff1660e01b815260040161070e9190611845565b602060405180830381865afa15801561072b573d6000803e3d6000fd5b505050506040513d601f19601f8201168201806040525081019061074f9190611f58565b905061076333848a8a8a8a60028989611352565b9350505050949350505050565b600080600083815260200190815260200160002090508060010160009054906101000a900473ffffffffffffffffffffffffffffffffffffffff1673ffffffffffffffffffffffffffffffffffffffff163373ffffffffffffffffffffffffffffffffffffffff161415801561083257507f000000000000000000000000000000000000000000000000000000000000000073ffffffffffffffffffffffffffffffffffffffff163373ffffffffffffffffffffffffffffffffffffffff1614155b1561087457816040517ff0fdd85600000000000000000000000000000000000000000000000000000000815260040161086b9190611845565b60405180910390fd5b8060080160089054906101000a900460ff166108c757816040517fe82e5fec0000000000000000000000000000000000000000000000000000000081526004016108be9190611845565b60405180910390fd5b60008160080160086101000a81548160ff021916908315150217905550817f2a5f2fd34b6a0d598009fa98d229c91632b19dc1f6c018deb65e5965dbd1191e60405160405180910390a25050565b6000806109213361132f565b9050600060016000838152602001908152602001600020541461097b57806040517fe5b05b65000000000000000000000000000000000000000000000000000000008152600401610972919061181b565b60405180910390fd5b61098e3382888888886000806000611352565b915050949350505050565b60006020528060005260406000206000915090508060000154908060010160009054906101000a900473ffffffffffffffffffffffffffffffffffffffff16908060020154908060030160009054906101000a900460ff1690806004015490806005015490806006018054610a0d90611fb4565b80601f0160208091040260200160405190810160405280929190818152602001828054610a3990611fb4565b8015610a865780601f10610a5b57610100808354040283529160200191610a86565b820191906000526020600020905b815481529060010190602001808311610a6957829003601f168201915b505050505090806007018054610a9b90611fb4565b80601f0160208091040260200160405190810160405280929190818152602001828054610ac790611fb4565b8015610b145780601f10610ae957610100808354040283529160200191610b14565b820191906000526020600020905b815481529060010190602001808311610af757829003601f168201915b5050505050908060080160009054906101000a900467ffffffffffffffff16908060080160089054906101000a900460ff1690508a565b60016020528060005260406000206000915090505481565b6060600260008373ffffffffffffffffffffffffffffffffffffffff1673ffffffffffffffffffffffffffffffffffffffff168152602001908152602001600020805480602002602001604051908101604052809291908181526020018280548015610bee57602002820191906000526020600020905b815481526020019060010190808311610bda575b50505050509050919050565b600080610c063361132f565b90506000600160008381526020019081526020016000205414610c6057806040517fe5b05b65000000000000000000000000000000000000000000000000000000008152600401610c57919061181b565b60405180910390fd5b60007f000000000000000000000000000000000000000000000000000000000000000073ffffffffffffffffffffffffffffffffffffffff1663bc936c52836040518263ffffffff1660e01b8152600401610cbb919061181b565b602060405180830381865afa158015610cd8573d6000803e3d6000fd5b505050506040513d601f19601f82011682018060405250810190610cfc9190611f58565b905060008103610d38576040517f289e1fcc00000000000000000000000000000000000000000000000000000000815260040160405180910390fd5b60007f000000000000000000000000000000000000000000000000000000000000000073ffffffffffffffffffffffffffffffffffffffff16635b0ad7ca836040518263ffffffff1660e01b8152600401610d939190611845565b602060405180830381865afa158015610db0573d6000803e3d6000fd5b505050506040513d601f19601f82011682018060405250810190610dd49190611f58565b9050610de833848a8a8a8a60018989611352565b9350505050949350505050565b610dfd611680565b60008083815260200190815260200160002060405180610140016040529081600082015481526020016001820160009054906101000a900473ffffffffffffffffffffffffffffffffffffffff1673ffffffffffffffffffffffffffffffffffffffff1673ffffffffffffffffffffffffffffffffffffffff168152602001600282015481526020016003820160009054906101000a900460ff166002811115610eaa57610ea9611955565b5b6002811115610ebc57610ebb611955565b5b81526020016004820154815260200160058201548152602001600682018054610ee490611fb4565b80601f0160208091040260200160405190810160405280929190818152602001828054610f1090611fb4565b8015610f5d5780601f10610f3257610100808354040283529160200191610f5d565b820191906000526020600020905b815481529060010190602001808311610f4057829003601f168201915b50505050508152602001600782018054610f7690611fb4565b80601f0160208091040260200160405190810160405280929190818152602001828054610fa290611fb4565b8015610fef5780601f10610fc457610100808354040283529160200191610fef565b820191906000526020600020905b815481529060010190602001808311610fd257829003601f168201915b505050505081526020016008820160009054906101000a900467ffffffffffffffff1667ffffffffffffffff1667ffffffffffffffff1681526020016008820160089054906101000a900460ff1615151515815250509050919050565b611054611680565b6000806001600085815260200190815260200160002054815260200190815260200160002060405180610140016040529081600082015481526020016001820160009054906101000a900473ffffffffffffffffffffffffffffffffffffffff1673ffffffffffffffffffffffffffffffffffffffff1673ffffffffffffffffffffffffffffffffffffffff168152602001600282015481526020016003820160009054906101000a900460ff16600281111561111457611113611955565b5b600281111561112657611125611955565b5b8152602001600482015481526020016005820154815260200160068201805461114e90611fb4565b80601f016020809104026020016040519081016040528092919081815260200182805461117a90611fb4565b80156111c75780601f1061119c576101008083540402835291602001916111c7565b820191906000526020600020905b8154815290600101906020018083116111aa57829003601f168201915b505050505081526020016007820180546111e090611fb4565b80601f016020809104026020016040519081016040528092919081815260200182805461120c90611fb4565b80156112595780601f1061122e57610100808354040283529160200191611259565b820191906000526020600020905b81548152906001019060200180831161123c57829003601f168201915b505050505081526020016008820160009054906101000a900467ffffffffffffffff1667ffffffffffffffff1667ffffffffffffffff1681526020016008820160089054906101000a900460ff1615151515815250509050919050565b7f000000000000000000000000000000000000000000000000000000000000000081565b600260205281600052604060002081815481106112f657600080fd5b90600052602060002001600091509150505481565b7f000000000000000000000000000000000000000000000000000000000000000081565b60008173ffffffffffffffffffffffffffffffffffffffff1660001b9050919050565b60006003600081548092919061136790612014565b9190505590506040518061014001604052808281526020018b73ffffffffffffffffffffffffffffffffffffffff1681526020018a81526020018560028111156113b4576113b3611955565b5b815260200184815260200183815260200189898080601f016020809104026020016040519081016040528093929190818152602001838380828437600081840152601f19601f82011690508083019250505050505050815260200187878080601f016020809104026020016040519081016040528093929190818152602001838380828437600081840152601f19601f8201169050808301925050505050505081526020014267ffffffffffffffff168152602001600115158152506000808381526020019081526020016000206000820151816000015560208201518160010160006101000a81548173ffffffffffffffffffffffffffffffffffffffff021916908373ffffffffffffffffffffffffffffffffffffffff1602179055506040820151816002015560608201518160030160006101000a81548160ff0219169083600281111561150857611507611955565b5b02179055506080820151816004015560a0820151816005015560c08201518160060190816115369190612240565b5060e082015181600701908161154c9190612240565b506101008201518160080160006101000a81548167ffffffffffffffff021916908367ffffffffffffffff1602179055506101208201518160080160086101000a81548160ff02191690831515021790555090505080600160008b815260200190815260200160002081905550600260008b73ffffffffffffffffffffffffffffffffffffffff1673ffffffffffffffffffffffffffffffffffffffff168152602001908152602001600020819080600181540180825580915050600190039060005260206000200160009091909190915055888a73ffffffffffffffffffffffffffffffffffffffff16827f80649cd856db9f7d6c03c90d19b766b9fc531db0a38cab42fb3519614a5685d987878760405161166b93929190612312565b60405180910390a49998505050505050505050565b60405180610140016040528060008152602001600073ffffffffffffffffffffffffffffffffffffffff16815260200160008019168152602001600060028111156116ce576116cd611955565b5b815260200160008152602001600081526020016060815260200160608152602001600067ffffffffffffffff1681526020016000151581525090565b600080fd5b600080fd5b6000819050919050565b61172781611714565b811461173257600080fd5b50565b6000813590506117448161171e565b92915050565b6000602082840312156117605761175f61170a565b5b600061176e84828501611735565b91505092915050565b600073ffffffffffffffffffffffffffffffffffffffff82169050919050565b60006117a282611777565b9050919050565b6117b281611797565b81146117bd57600080fd5b50565b6000813590506117cf816117a9565b92915050565b6000602082840312156117eb576117ea61170a565b5b60006117f9848285016117c0565b91505092915050565b6000819050919050565b61181581611802565b82525050565b6000602082019050611830600083018461180c565b92915050565b61183f81611714565b82525050565b600060208201905061185a6000830184611836565b92915050565b600080fd5b600080fd5b600080fd5b60008083601f84011261188557611884611860565b5b8235905067ffffffffffffffff8111156118a2576118a1611865565b5b6020830191508360018202830111156118be576118bd61186a565b5b9250929050565b600080600080604085870312156118df576118de61170a565b5b600085013567ffffffffffffffff8111156118fd576118fc61170f565b5b6119098782880161186f565b9450945050602085013567ffffffffffffffff81111561192c5761192b61170f565b5b6119388782880161186f565b925092505092959194509250565b61194f81611797565b82525050565b7f4e487b7100000000000000000000000000000000000000000000000000000000600052602160045260246000fd5b6003811061199557611994611955565b5b50565b60008190506119a682611984565b919050565b60006119b682611998565b9050919050565b6119c6816119ab565b82525050565b600081519050919050565b600082825260208201905092915050565b60005b83811015611a065780820151818401526020810190506119eb565b60008484015250505050565b6000601f19601f8301169050919050565b6000611a2e826119cc565b611a3881856119d7565b9350611a488185602086016119e8565b611a5181611a12565b840191505092915050565b600067ffffffffffffffff82169050919050565b611a7981611a5c565b82525050565b60008115159050919050565b611a9481611a7f565b82525050565b600061014082019050611ab0600083018d611836565b611abd602083018c611946565b611aca604083018b61180c565b611ad7606083018a6119bd565b611ae46080830189611836565b611af160a0830188611836565b81810360c0830152611b038187611a23565b905081810360e0830152611b178186611a23565b9050611b27610100830185611a70565b611b35610120830184611a8b565b9b9a5050505050505050505050565b611b4d81611802565b8114611b5857600080fd5b50565b600081359050611b6a81611b44565b92915050565b600060208284031215611b8657611b8561170a565b5b6000611b9484828501611b5b565b91505092915050565b600081519050919050565b600082825260208201905092915050565b6000819050602082019050919050565b611bd281611714565b82525050565b6000611be48383611bc9565b60208301905092915050565b6000602082019050919050565b6000611c0882611b9d565b611c128185611ba8565b9350611c1d83611bb9565b8060005b83811015611c4e578151611c358882611bd8565b9750611c4083611bf0565b925050600181019050611c21565b5085935050505092915050565b60006020820190508181036000830152611c758184611bfd565b905092915050565b611c8681611797565b82525050565b611c9581611802565b82525050565b611ca4816119ab565b82525050565b600082825260208201905092915050565b6000611cc6826119cc565b611cd08185611caa565b9350611ce08185602086016119e8565b611ce981611a12565b840191505092915050565b611cfd81611a5c565b82525050565b611d0c81611a7f565b82525050565b600061014083016000830151611d2b6000860182611bc9565b506020830151611d3e6020860182611c7d565b506040830151611d516040860182611c8c565b506060830151611d646060860182611c9b565b506080830151611d776080860182611bc9565b5060a0830151611d8a60a0860182611bc9565b5060c083015184820360c0860152611da28282611cbb565b91505060e083015184820360e0860152611dbc8282611cbb565b915050610100830151611dd3610100860182611cf4565b50610120830151611de8610120860182611d03565b508091505092915050565b60006020820190508181036000830152611e0d8184611d12565b905092915050565b6000819050919050565b6000611e3a611e35611e3084611777565b611e15565b611777565b9050919050565b6000611e4c82611e1f565b9050919050565b6000611e5e82611e41565b9050919050565b611e6e81611e53565b82525050565b6000602082019050611e896000830184611e65565b92915050565b60008060408385031215611ea657611ea561170a565b5b6000611eb4858286016117c0565b9250506020611ec585828601611735565b9150509250929050565b6000602082019050611ee46000830184611946565b92915050565b611ef381611a7f565b8114611efe57600080fd5b50565b600081519050611f1081611eea565b92915050565b600060208284031215611f2c57611f2b61170a565b5b6000611f3a84828501611f01565b91505092915050565b600081519050611f528161171e565b92915050565b600060208284031215611f6e57611f6d61170a565b5b6000611f7c84828501611f43565b91505092915050565b7f4e487b7100000000000000000000000000000000000000000000000000000000600052602260045260246000fd5b60006002820490506001821680611fcc57607f821691505b602082108103611fdf57611fde611f85565b5b50919050565b7f4e487b7100000000000000000000000000000000000000000000000000000000600052601160045260246000fd5b600061201f82611714565b91507fffffffffffffffffffffffffffffffffffffffffffffffffffffffffffffffff820361205157612050611fe5565b5b600182019050919050565b7f4e487b7100000000000000000000000000000000000000000000000000000000600052604160045260246000fd5b60008190508160005260206000209050919050565b60006020601f8301049050919050565b600082821b905092915050565b6000600883026120ed7fffffffffffffffffffffffffffffffffffffffffffffffffffffffffffffffff826120b0565b6120f786836120b0565b95508019841693508086168417925050509392505050565b600061212a61212561212084611714565b611e15565b611714565b9050919050565b6000819050919050565b6121448361210f565b61215861215082612131565b8484546120bd565b825550505050565b600090565b61216d612160565b61217881848461213b565b505050565b60005b828110156121a0576121956000828401612165565b600181019050612180565b505050565b601f8211156121f457828211156121f3576121bf8161208b565b6121c8836120a0565b6121d1856120a0565b60208610156121df57600090505b8083016121ee8284038261217d565b505050505b5b505050565b600082821c905092915050565b6000612217600019846008026121f9565b1980831691505092915050565b60006122308383612206565b9150826002028217905092915050565b612249826119cc565b67ffffffffffffffff8111156122625761226161205c565b5b61226c8254611fb4565b6122778282856121a5565b600060209050601f8311600181146122aa5760008415612298578287015190505b6122a28582612224565b86555061230a565b601f1984166122b88661208b565b60005b828110156122e0578489015182556001820191506020850194506020810190506122bb565b868310156122fd57848901516122f9601f891682612206565b8355505b6001600288020188555050505b505050505050565b600060608201905061232760008301866119bd565b6123346020830185611836565b6123416040830184611836565b94935050505056fea2646970667358221220abd5c7566530401afc1a7c8aeaa1e51559e5c59e0be7c5b3e611b100e89d64e664736f6c63430008210033","linkReferences":{}},"methodIdentifiers":{"admin()":"f851a440","agentKeyToCert(bytes32)":"65f95320","certs(uint256)":"646750d6","getCert(uint256)":"b449e716","getCertForAgent(bytes32)":"cb73484c","getOwnerCerts(address)":"8ef5732f","mintSelfLinkedCert(string,string)":"9ba257bc","mintSelfVerifiedCert(string,string)":"2f1abeeb","mintWalletCert(string,string)":"5cbb16bb","nextCertId()":"2a8e6a8e","ownerCerts(address,uint256)":"ecaa0b38","reactivate(uint256)":"09df30ec","selfRegistry()":"dda02257","suspend(uint256)":"4b865846","walletAgentKey(address)":"10701113"},"id":16}